:1000000000800010C90E0000F90E0000FB0E000079
:10001000FD0E0000FF0E0000010F000000000000B8
:10002000000000000000000000000000030F0000BE
:10003000050F000000000000070F0000090F00007E
:100040000B0F00000B0F00000B0F00000B0F000048
:100050000B0F00000B0F00000B0F00000B0F000038
:100060000B0F00000B0F00000B0F00000B0F000028
:100070000B0F00000B0F00000B0F00000B0F000018
:100080000B0F00000B0F00000B0F00000B0F000008
:100090000B0F00000B0F00000B0F00000B0F0000F8
:1000A0000B0F00000B0F00000B0F00000B0F0000E8
:1000B0000B0F00000B0F00000B0F00000B0F0000D8
:1000C0000B0F00000B0F00000B0F000010B5054CCC
:1000D000237833B9044B13B10448AFF300800123F4
:1000E000237010BD7801001000000000D47B0000D8
:1000F000084B10B51BB108480849AFF30080084809
:10010000036803B910BD074B002BFBD0BDE81040BE
:10011000184700BF00000000D47B00007C010010E5
:100120007801001000000000154B002B08BF134B96
:100130009D46A3F5803A00218B460F461348144A8A
:10014000121A02F0E6F80F4B002B00D098470E4B26
:10015000002B00D098470020002104000D000D481E
:10016000002802D00C48AFF3008002F07BF820009A
:10017000290000F073FE01F099FE00BF00000800A6
:100180000080001000000000000000007801001056
:100190003C040010000000000000000008B5044806
:1001A00003F05CF900F006F800F0ACF8FCE700BFE3
:1001B0009471000008B500F06FFA074A002313603D
:1001C000064A1360064A136000F0DCFABDE80840F6
:1001D000044803F043B900BF940100100802001066
:1001E000F4010010A17100002DE9F84381461C20A4
:1001F000884617461E4602F05BF80446A8B10C4D2F
:100200000C482B680BB92C6001E003689C61089BCB
:10021000046023610023A361099BC4F8009018685F
:10022000C4F804802772E6606061BDE8F88300BF0F
:100230009401001008020010F8B505460E46174656
:100240000A4B1C6884B128462168212203F0C3FAB6
:1002500040B930466168212203F0BDFA10B9237A13
:100260009F4201D0A469EDE72046F8BD940100103B
:10027000013A13B50446092A41D8DFE802F0050522
:100280001A0C202A132A313C086801F001FE0028CC
:10029000B8BF404210E0086801F0FAFD0028B8BF7E
:1002A00040420FE0086801F0F7FD0028B8BF404267
:1002B00012E0086801F0ECFD2070012020E00868E1
:1002C00001F0E6FD02AB43F8040D1B8802202380F9
:1002D00016E0086801F0E0FD02AB43F8040D07E00A
:1002E000086801F0D2FD06F0E9FE02AB43F8040D08
:1002F0001868206001E00B680360042000E0002023
:1003000002B010BD2DE9F341A34C2368062B00F287
:10031000AD81DFE813F0070049008800C800D9006C
:10032000ED0089019D4D6B782B70AB786B70EB788D
:10033000AB7000F0B2F99A49E8700322284601F048
:10034000CDFF28B128469749032201F0C7FF20B905
:10035000954B00221A60012500E000258F48934943
:10036000042201F0BBFF28B18C489149042201F01E
:10037000B5FF28B98C4B01221A6000F08EF902E01B
:10038000002D00F0738100F088F98A4B2F28187037
:1003900005D00A208849002200F09CF966E101237B
:1003A0002360864A00239FE000F077F9814A0D28F8
:1003B00010707A4B1646824D01D00A2815D12A6852
:1003C000764800257F499D5403F0F3F906460A203C
:1003D0002EB97D49324600F07DF9266046E17B4921
:1003E0002A4600F077F9256040E12F2806D02A68D8
:1003F0001F2A03DC511C2960985437E12A68002128
:10040000995473486549013201F078FF33782F2BF6
:1004100004D000F042F9674B1870F7E7022323601D
:1004200000232B6022E100F038F9624B0D28187090
:100430005A491E46624D01D00A280ED12A6800236F
:100440008B5464485549013201F058FF564B1B68E4
:10045000012B40F0E780032307E12F2807D12A680A
:1004600000238B545B48013201F048FFFCE02B680D
:100470001F2B03F1010213DD0020C854554801F081
:100480003DFF33782F2B00F0EF800D2B00F0CA805A
:100490000A2B00F0C78000F000F9464B1870F0E717
:1004A0002A60C854E2E0404B49481A684949FFF7BE
:1004B000C3FE424B186010B90A204749CFE0037DC4
:1004C000002B00F0AF8097E0374B41481A68414954
:1004D000FFF7B2FE394B18600028EDD005233F4AE4
:1004E0002360002313603E4A1360354A1360BDE069
:1004F00000F0D3F82F4E0D283070284D304F03D028
:100500000A2801D02F2803D13B680022EA5413E0C7
:100510003B681F2B0DDD0022EA5433782F2B0BD0C4
:100520000D2B09D00A2B07D000F0B7F8214B18701B
:10053000F3E75A1C3A60E85433782F2B1BD1274835
:100540001E4BDFF89C801A68036802A903F1010CB6
:10055000C0F800C013442348D8F8002041F8045DD7
:1005600010441A7DFFF784FED8F8003018440023A9
:10057000C8F800003B6033780D2B01D00A2B75D1F1
:10058000164A0E4813681646022B2DDC02681A44E0
:10059000527D5AB330E000BFF4010010B9010010E1
:1005A000B7710000BB710000FC010010BF710000BA
:1005B000C4710000F0010010C9710000EC010010CE
:1005C000F8010010E8710000F471000014720000DE
:1005D000980100100C020010367200000402001096
:1005E00000020010DA010010032B08D102681A443F
:1005F000127D22B12A7812B90A201E492FE002A9E1
:1006000041F8045D00681C4D5A1C326003442A689E
:100610001A4810441A7DFFF72BFE2B68184400235C
:1006200028603B60062320E0154D2B6833B9154B3D
:10063000154816491A68FFF7FFFD28602B68002B44
:100640003FF43AAF0A201249002200F043F80C4B65
:100650000A491B681869DA6890470E490A20002287
:1006600000F038F8002300E00423236002B0BDE866
:10067000F08100BF4772000000020010DA01001094
:10068000EC010010FC010010980100100C02001099
:100690005472000056720000704708B501F0D0FD9A
:1006A000431C14BFC0B20D2008BD08B502F064FEA3
:1006B000003018BF012008BD70B505460E46441E27
:1006C00014F8010F28B1631BB34202DAFFF7EDFF04
:1006D000F6E770BD30B5013889B00C4615460928DB
:1006E00037D8DFE800F0050512091A170F1F232D70
:1006F00068461D49227802E068461C49228802F0BB
:10070000F1FF26E068461A490EE06846194994F957
:100710000020F4E76846184906E068461649B4F92F
:100720000020ECE7684615492268E8E7086806F00B
:100730008FF902460B466846114902F0D3FF08E0E4
:100740002220FFF7B2FF20462021FFF7B5FF22202D
:1007500005E068462021FFF7AFFF15B12C20FFF719
:10076000A4FF09B030BD00BF587200005D720000E8
:100770006072000064720000697200006E7900000F
:100780006C7200002DE9FF41042001F059FB07467F
:100790002E4D002403AE2E492E4A00F0C8F82846FC
:1007A0002246009701962C492C4B0394FFF71CFD21
:1007B000284622460097019629492A4BFFF714FD47
:1007C00028462246009701962749284BFFF70CFD43
:1007D00028462246009701962549264BFFF704FD3F
:1007E00028462246009701962349244BFFF7FCFC3C
:1007F000062303948DF80C3003234FF009088DF87D
:100800000E302846009701961D4901221D4B8DF898
:100810000D80FFF7E9FC0223039428468DF80C3085
:100820000097019618490122184BFFF7DDFC00974D
:100830000196284616490122164B03948DF80C8028
:10084000FFF7D2FC04B0BDE8F08100BF6F7200007A
:100850001BC009201CC009207E7200007D09000019
:1008600083720000A50900008C720000CD09000011
:10087000907200000D0A00009C720000390A00000E
:10088000A4720000850A0000B0720000B50A0000E2
:10089000B9720000DD0A000010B5044600F036FB16
:1008A0002046BDE81040014900F098BBA086010039
:1008B0001E230B6001207047FF230B70012070473F
:1008C000014B01200B607047000052420348086052
:1008D000034901201160034A1A607047CDCC44419E
:1008E0006666364200009C420548086005490120C2
:1008F0001160054A1A60009B5A221A60704700BFB7
:10090000CDCC44416666364200009C421FB50124AE
:1009100004AA02F8011D23460094002100F06AFB9E
:10092000204604B010BD002070470120704770B50C
:10093000044604200E46154601F0BAFC31462060FC
:100940002A46FFF7A9FF204670BD0068FFF7B0BF39
:100950000068FFF7B1BF0068FFF7B2BF0068FFF79C
:10096000B5BF0068FFF7C0BF0068FFF7CFBF0068E2
:10097000FFF7D9BF0068FFF7D8BF000007B501A98E
:10098000FFF7E3FF024618B1062001A9002201E0AB
:1009900003490A20FFF79EFE03B05DF804FB00BF89
:1009A000C572000007B501A9FFF7D5FF024618B1CF
:1009B000092001A9002201E003490A20FFF78AFE6D
:1009C00003B05DF804FB00BFC57200001FB502AAAA
:1009D00001A903ABFFF7C2FF024668B1092001A9D4
:1009E0000122FFF777FE092002A90122FFF772FE1C
:1009F000092003A9002201E003490A20FFF76AFE4B
:100A000005B05DF804FB00BFC572000007B50DF12D
:100A10000701FFF79DFF024620B102200DF10701FB
:100A2000002201E003490A20FFF754FE03B05DF8FD
:100A300004FB00BFC572000010B586B005AC03AA68
:100A4000009402A904ABFFF78CFF024690B1092085
:100A500002A90122FFF73EFE092003A90122FFF7A8
:100A600039FE092004A90122FFF734FE06202146A1
:100A7000002201E002490A20FFF72CFE06B010BD5B
:100A8000C572000008B50B4609685A6893F908302A
:100A9000FFF770FF02460A2012B10449002200E06D
:100AA0000349BDE80840FFF715BE00BFCC72000047
:100AB000C572000008B50978FFF756FF02460A2004
:100AC00012B10449002200E00349BDE80840FFF7E5
:100AD00001BE00BFCC720000C572000008B50968F5
:100AE000FFF745FF02460A2012B10449002200E048
:100AF0000349BDE80840FFF7EDBD00BFCC72000020
:100B0000C57200000C4A30B4936894681A46B4F178
:100B1000805F0CD2094A03F1C40553F8044BAB4281
:100B200042F8044FF9D1044B4FF080529A601030D4
:100B300042F8201030BC704700ED00E0FCFFFF0FD2
:100B40002B4A202370B4C2F8A031D2F8A031980605
:100B500045D4274B022100250124AA2055220B262B
:100B6000C3F80411C3F8A8511946C3F8AC51C3F82F
:100B70000C41C3F88460C3F88C00C3F88C20C3F820
:100B80008040C3F88C00C3F88C20D1F88830184A14
:100B90005B01FAD50321AA205523C2F88010C2F8C0
:100BA0008C001146C2F88C30D1F88830104A13F00E
:100BB000407FF9D00F4900230520C2F80801C2F890
:100BC000C410C2F8C831136870BC23F4704323F01A
:100BD0003A0343F4405343F03A0313607047D2F8AA
:100BE000A0315906B5D4D2F8A0315906F7D5B0E7EF
:100BF00000C00F40DE87280400B599B072B63B49AB
:100C0000684600F073FF06A8394900F06FFF0CA892
:100C1000384900F06BFF12A8374900F067FF32E057
:100C20000699039B019A01311A6059D00C990A9BCD
:100C3000079A01311A604DD01299109B0D9A01311B
:100C40001A6041D0159B139A96201A6001F038F86B
:100C5000009B013332D00699049B019A01311A603E
:100C600026D00C99099B079A01311A601AD0129963
:100C70000F9B0D9A01311A600ED0169B139A962085
:100C80001A6001F01DF8009B0133C9D11B481C49B3
:100C9000242200F0EFFEC3E718481949242200F08F
:100CA000E9FEEAE715481649242200F0E3FEDEE7F4
:100CB00012481349242200F0DDFED2E70F48104904
:100CC000242200F0D7FEC6E70C480D49242200F08C
:100CD000D1FEB7E709480A49242200F0CBFEABE772
:100CE00006480749242200F0C5FE9FE732C00920CC
:100CF00034C0092035C0092037C00920D072000057
:100D0000E872000002480349034A00F07BBD00BFBF
:100D10003004001002C0092003C00920022808B5D1
:100D20000BDD084BC21E53F82200002143F82210AD
:100D300028B103685B68984708BD002008BD4FF0E4
:100D4000FF3008BD30020010022870B50C46164670
:100D50000FDC0E4B1B680BB9FFF7D4FFA51936B19A
:100D600014F8011B0A4800F09DFCAC42F8D1304653
:100D700070BD084B033853F8200018B103681B6896
:100D8000984770BD4FF0FF3070BD00BF30030010BA
:100D90003004001030020010022810B50C4609DCA7
:100DA0000D4B1B688BB10D4800F026FC0123207011
:100DB000184610BD0A4B033853F8200040B10368B1
:100DC0009B6898470346184610BDFFF79BFFEAE76C
:100DD0004FF0FF33ECE700BF300300103004001089
:100DE00030020010022808B508DD074B033853F81D
:100DF000200028B10368DB68984708BD012008BDC2
:100E00004FF0FF3008BD00BF30020010022808B5C7
:100E100008DD074B033853F8200028B103681B692D
:100E2000984708BD002008BD4FF0FF3008BD00BF47
:100E300030020010022808B504D84FF400534B606C
:100E4000002008BD01F02CF8092303604FF0FF30AB
:100E500008BD00BF704700BF704700BF08B5FFF76F
:100E6000FBFFFFF7F7FFBDE80840FFF797B900BFAA
:100E7000074A13681844EFF30881884202D21060D1
:100E800018467047034B0C221A604FF0FF30704732
:100E9000CC000010380400100A4C08B52368054641
:100EA000986801F0C5F82368D86801F0C1F800F02F
:100EB00009FE20B905B9FEE7FFF79EFEFBE700F04B
:100EC000BBFEF7E7300100100649074A074B9A427C
:100ED000BEBF51F8040B42F8040BF8E70448804702
:100EE00004480047087C0000C8000010780100108A
:100EF000410B000029010000FEE7FEE7FEE7FEE7E8
:100F0000FEE7FEE7FEE7FEE7FEE7FEE7F8B506468A
:100F10000D4608462949144600F074FE2849074644
:100F2000204600F06FFE0146384600F04BFE421CA2
:100F3000034630603AD0234A93422FD002F58822EC
:100F4000934223D0A2F50422934216D01E4A1F4991
:100F500012683C27120AA1FB0202402692095A613C
:100F600028461A6115499F611E6000F00BFE20465D
:100F70001349BDE8F84000F005BE02F56022D2F842
:100F8000C41041F08001C2F8C410DFE7104AD2F863
:100F9000C41041F08061C2F8C410D7E70C4AD2F8FF
:100FA000C41041F40021C2F8C410CFE709480A492F
:100FB000632200F05FFD3368BDE700BF507300009F
:100FC0000874000000C00540C8000010632D3E05F5
:100FD00000C00F408C730000A0730000044B490058
:100FE0001A6803689208B2FBF1F159611961704700
:100FF000C800001070B404683C252420A561354D5C
:10100000206001E0013D02D026683607FAD5656808
:101010002020102DA06110D0082D0ED01023082202
:1010200023602C4BA26101E0013B02D02268D5066F
:10103000FAD46FF0010070BC704701F0FE01082087
:10104000A1602449A06101E0013902D02568280788
:10105000FAD5616818290ED01023082223601D4B91
:10106000A26101E0013B02D02268D606FAD44FF01B
:10107000FF3070BC7047002B11DD00200826155C86
:101080001449A560A66101E0013902D025682D0749
:10109000FAD56168282911D101309842EFD1039A1D
:1010A00052B11022082122600A4AA16101E0013AEE
:1010B00002D02168C906FAD41846BCE710230822DA
:1010C0002360044BA26101E0013BB4D02268D50645
:1010D000FAD4B0E7A186010008B5154A9368C3F3B6
:1010E0004203012B1ED0022B19D1124B596F013133
:1010F0000AD0D3F88010986F086093F8A61019B939
:10110000516821F001015160186F0A4B48B193F802
:10111000A6302BB10021084A1368984708BD08BDC6
:1011200008BD08BD034A106F0028F9D01946F2E740
:1011300000800940380300103403001070B50368C4
:10114000294CA34249D041DD284CA3422AD004F5C2
:101150008044A34244D1264C08263ABB01290BD037
:101160004568244AC5EBC50502EBC50494F8355023
:1011700094F83620EA4214D1012202FA01F5D1F1A5
:10118000010138BF002102FA01F15C6824EA05047C
:101190005C6003685B68194203D1B240164BC3F828
:1011A000802070BD154C0726002AD7D0012505FAEE
:1011B00001F176B2304605FA06F65A680A435A60DB
:1011C0002146FFF79FFC0C4B1E6070BDA4F58044C8
:1011D000A34205D10A4C0526BFE70A4C0626BCE708
:1011E00000242646B9E700BF000001400080094006
:1011F0006D1200003803001000E100E0D91000007B
:1012000009120000D912000008B5154A9368C3F30B
:101210004203012B1DD0022B18D1124B596801310A
:1012200009D019699868086093F8361019B951689F
:1012300021F00101516018680A4B48B193F836302B
:101240002BB10021084A1368984708BD08BD08BDA6
:1012500008BD044A10680028F9D01946F2E700BF1B
:1012600000C00040380300103403001008B5174ACE
:101270009368C3F34203012B21D0022B1CD1144BE2
:10128000D3F8AC1001310BD0D3F8B810D3F8B000BC
:10129000086093F8DE1019B9516821F0010151601E
:1012A000D3F8A8000A4B48B193F8DE302BB10021E7
:1012B000084A1368984708BD08BD08BD08BD044A20
:1012C000D2F8A8000028F8D01946F1E700C009407C
:1012D000380300103403001008B5154A9368C3F3AF
:1012E0004203012B1DD0022B18D1124BD96B0131B7
:1012F00009D0996C186C086093F86E1019B9516890
:1013000021F001015160986B0A4B48B193F86E309F
:101310002BB10021084A1368984708BD08BD08BDD5
:1013200008BD044A906B0028F9D01946F2E700BFC7
:101330000000014038030010340300102DE9F04F85
:101340000368884A8DB0934209908B4600F3F08081
:10135000854A934200F0F78040F3D780834A934256
:1013600000F09F8002F5804293420CD1804AD2F86F
:10137000AC1121F44021C2F8AC11D2F8AC1141F407
:101380008021C2F8AC117B494FEA0B120968089121
:10139000089CB1FBF2F102FB114289B20491002AD0
:1013A00000F0B1806100A2000123029400240B919F
:1013B0000A9201930F4603920693CDF81CB05E4645
:1013C0000594DDF81CA001994FF00008D146CDB27C
:1013D000DA46C346002F79DB0399DDF804E0B1FB60
:1013E000F9F464090134C4F34F04DE44002C66D1DF
:1013F0000124B8F1000F67D104FB0EF0029AC0007F
:10140000B2FBF0F00130CAEB500000F03AFDB04200
:1014100006DA504564D00646CDF81480049406954B
:101420000BF1010B5FFA8BF84545D144D2D8019CF2
:10143000D3460F2C4FF000035DD0029A0899019C0F
:101440000A440B99013402920194039A0F440A9CB6
:1014500007992244594403920791002BB1D0069B6F
:10146000059A099C42EA03102368C0B2197B049CC8
:1014700041F08001C4F30722099C19732368049981
:101480001A7123685FFA81FB83F800B0236883F840
:10149000280023681A7B02F07F021A730DB0BDE8A2
:1014A000F08F334AD2F8AC1121F44031C2F8AC11BC
:1014B000D2F8AC1141F48031C2F8AC1163E7B8F155
:1014C000000F99D0012C97D8022495E7B7FBF9F4C7
:1014D0002409DDF804E00134C4F34F04DE4485E759
:1014E0000494019CD3460F2C0695CDF814805646E3
:1014F0004FF00103A1D10599069A099C41EA021017
:10150000C0B22368B2E71020B0E7A2F58042934250
:101510007FF439AF164AD2F8A81121F0C001C2F801
:10152000A811D2F8A81141F04001C2F8A8112AE789
:101530009B221148114900F09DFA099C0A4A236830
:1015400093427FF409AF0A4AD2F8A81121F44071FE
:10155000C2F8A811D2F8A81141F48071C2F8A811FC
:1015600011E700BF00C009400000014000800940B1
:1015700000C00F40C8000010E474000000750000B7
:10158000F8B55D1E012D07460C46164604D91548D0
:101590001549FB2200F06EFA053C032C1CD8042EE2
:1015A00014D8013EF6B2032E0DD8104B082253F882
:1015B00026301B01DBB244EA8504144323433A6816
:1015C000DBB21373F8BD00231A46F4E70848064956
:1015D000FE2200F04FFAE4E706480349FC2200F03F
:1015E00049FADCE7687500000075000068740000C7
:1015F000B47500009075000000B50268137DDB072C
:10160000FCD543680949C3EBC30301EBC303596825
:1016100010780131C0B207D0596904335B680B60A0
:10162000536843F0010353605DF804FB3803001076
:1016300038B54368184AC3EBC303DB00D11804462E
:10164000C869013011D018331A445368151D01338D
:1016500016D06A696B6812681A4204D12368187D33
:10166000C0F3801038BD002038BD23681B7D9B0669
:101670000CD491F834000F288CBF0020012038BD15
:10168000064807492C2200F0F5F9E2E7002381F82B
:101690003430012038BD00BF38030010D072000084
:1016A0003876000038B504460D462046FFF7C0FFE7
:1016B0000028FAD02368EDB21D706268054BC2EBBA
:1016C000C20203EBC20393F83420013283F83420C2
:1016D00038BD00BF380300102DE9F04F0446454DDA
:1016E000006883B0A8420E469046994643D065688C
:1016F000002301932A46DFF808A1EF00C2EBC202E3
:10170000781B4FF0000E0AEBC0000AEBC20C4FF042
:10171000FF33C36143607146724620468CF835E062
:10172000FFF70CFD16B903B0BDE8F08F3249404613
:1017300000F05AFA31498346484600F055FAB21E85
:10174000012A38D9012EEED1B8F1FF3FEBD029495B
:10175000226807208B45107215D1019B9BB11B7C21
:10176000019A254943F040034046137403B0BDE895
:10177000F04F00F007BA037C656803F03F03037481
:1017800062680190B7E77D1B0AEBC5004146043053
:10179000002200F0CDF962680125C2EBC2020AEB1B
:1017A000C20320462A46002183F8355003B0BDE825
:1017B000F04FFFF7C3BCB9F1FF3F09D00D4A90428B
:1017C0000CD0781B0AEBC00049461C3000F07CF9B5
:1017D000032EA8D1B8F1FF3FB9D1A4E7019B002B9C
:1017E000EFD01A7C484642F080021A74034900F098
:1017F000C9F9EDE7000001404474000020770000C3
:10180000380300102DE9F0470F46054608466149A8
:10181000164600F0F7F960490446304600F0F2F948
:101820000146204600F0CEF9411C044600F0AB8092
:101830005A4B2860984200F0838053D9584B984205
:1018400076D003F58043984206D1564BD3F8C42096
:1018500042F00072C3F8C4204FF0010984F80890E8
:101860002B684FF00008C3F8048028464FF4165147
:10187000FFF764FD42464B4628460821FFF780FEED
:101880003846444900F07EF93046434900F07AF981
:101890007A1C03D03846414600F096FA731C03D0F8
:1018A0003046002100F090FA3C4B9C4250D025D9A4
:1018B0003B4B9C4264D003F580439C424BD10323B5
:1018C0006B603949C3EBC3034FF0FF34284601EB8B
:1018D000C305224623466C60EC610021BDE8F04759
:1018E000FFF7FABEA3F580439842B5D12D4BD3F84C
:1018F000C42042F00802C3F8C420ADE7A3F580433A
:101900009C4228D1284E4FF0FF34002169602246C6
:10191000234628467460F461FFF7DEFE234B012462
:1019200029461C6022480822BDE8F04700F0E6BCCA
:101930001C4BD3F8C42042F08072C3F8C4208BE75C
:10194000184BD3F8C42042F01002C3F8C42083E738
:1019500001236B60B5E76B681349C3EBC3034FF01A
:10196000FF3601EBC30732463346284600217E602E
:10197000FE61FFF7B1FE0F4B9C42CFD0BDE8F08770
:1019800002236B609DE70C480C495C2200F072F862
:101990002C6061E7B476000078740000000001401C
:1019A0000080094000C00F403803001030030010D1
:1019B0003004001000C00040A47600000075000054
:1019C000134A38B513680BBB12490124D1F8C4502F
:1019D0001460114A114845F40005C1F8C45013675A
:1019E000036801F1437101F5F45103319B08A1FB38
:1019F00003039B0C013B022151600420D360084982
:101A00005460FFF77FF8074B10221A6038BD00BF03
:101A10001804001000C00F4000400940C80000102A
:101A2000611C000000E100E008B5044B1B680BB925
:101A3000FFF7C6FF024B986808BD00BF18040010EE
:101A400000400940034B98615A6942F001025A6113
:101A5000704700BF00400940024B5A6922F0010262
:101A60005A61704700400940014B01221A607047DB
:101A70000040094010B5084B0446186882B00B4678
:101A8000C06806490092224600F08EFB02B0BDE815
:101A90001040FFF7B1B800BF3001001044770000DC
:101AA0000FB400B5064A83B004AB126853F8041BA8
:101AB000D0681A46019300F0FFFD012000F0F6F90E
:101AC0003001001000F0C4B838B50D46044600F0EF
:101AD00015F9013509D02046002100F02BF92046E8
:101AE0000321BDE8384000F021B938BD38B50D46B6
:101AF000044600F003F901350FD0236801330DD0FF
:101B00002369626820461A60012100F013F920461B
:101B10000221BDE8384000F009B938BD0248034948
:101B20002422FFF7A7FFEBE7D0720000E872000065
:101B300070B50D461646044600F0E0F8013514D0A5
:101B40002368013312D066B9236962681A6020469F
:101B5000012100F0EFF820460221BDE8704000F0BE
:101B6000E5B8E36862681A60F1E770BD03480449AC
:101B70002422FFF77FFF002EE6D0F2E7D0720000AC
:101B8000E8720000431C10B5044618D00B68581CBE
:101B900004D10FE051F80C3F5A1C0BD09C42F9D1F4
:101BA0002046896800F0E8F820460221BDE8104090
:101BB00000F00AB90248BDE81040FFF771BF10BD40
:101BC00078770000884208B50AD0431C07D001315D
:101BD00006D00448FFF764FF4FF0FF3008BD084609
:101BE00008BD00BF8C7700000B685A1C04D107E0C9
:101BF00051F80C3F5A1C03D08342F9D14868704712
:101C00001846704708B5431C0CD00B685A1C04D109
:101C100009E051F80C3F5A1C05D09842F9D14868A8
:101C2000411C00D008BD0348FFF73AFF4FF0FF30DA
:101C3000F8E700BFA077000030B585B018246D46E6
:101C400020462946ABBE0446204605B030BD00BF45
:101C5000024B186800F00100704700BFF0ED00E093
:101C600070B5FFF701FF0E4C0E4E236873B11D686F
:101C7000FFF7DAFE281A00280CDC216832688B682E
:101C80002360002AF2D048689047EEE7BDE8704034
:101C9000FFF7E2BE2368BDE870401868FFF7D2BEC8
:101CA0001C0400102004001038B50546FFF7BCFEE8
:101CB0000446FFF7B9FE001BA842FAD338BD00BFA7
:101CC0004FF47A7303FB00F0FFF7EEBF431C10B52F
:101CD000044608D02046002100F04EF804F01F040E
:101CE0000120A04010BD034803491522FFF7C2FEA2
:101CF000F0E700BFE0770000F477000038B5044655
:101D00004B1C0D4621600FD00846FFF7DFFF25F082
:101D10001F0505F1180105F11C0205F114036060AF
:101D2000A560E1602261636138BD00BF006800F01A
:101D30004BB800BF38B50368044601330D4610D0D8
:101D400045B1012D05D1A368626819680A431A607C
:101D500038BD38BDA36861681A6822EA01021A60BA
:101D600038BD034803492C22FFF784FEE8E700BF93
:101D7000D0720000F477000038B5431C04460D46CD
:101D800017D004F16040A0F51C2000F00F035B00A9
:101D900003229A409D4003099B0003F1804303F511
:101DA0003033196821EA02021A601A6815431D606F
:101DB00038BD034803491522FFF75CFEE1E700BF89
:101DC000E07700005C78000038B5431C04460D46FF
:101DD0002CD004F16040A0F51C2000F01F04C5F3D6
:101DE000800202FA04F443099B0003F1804303F5E7
:101DF0003033996E21EA04019966996E0C439C6612
:101E00009AB900F00F035B0003229A4005FA03F32E
:101E10000009800000F1804000F53030016C21EABB
:101E200002020264026C1343036438BD0248034992
:101E30002022FFF71FFECCE7E07700005C7800006F
:101E400010B5002814BF04460124204600F030FAE3
:101E500030B900F007F808B900F00CF88047F4E753
:101E600010BD0000024B1868BFF35F8F704700BFC2
:101E70002404001008B5062001F018FC0120FFF72B
:101E80000BF80028B8BF40427047002102F010BB99
:101E900000210A2202F09CBB00210A2202F098BB1A
:101EA000014B1868704700BF3001001008B5074BA0
:101EB000044613B10021AFF30080054B1868836A14
:101EC00003B198472046FEF7E7FF00BF000000007F
:101ED000247900008A892DE9F041054610070C4657
:101EE00057D44B68002B02DC0B6C002B18DDE66A24
:101EF000B6B102F48052002392B22F682B600AB16F
:101F0000626D10E0216A28460123B047411C024659
:101F100009D12B683BB11D2B01D0162B46D12F6068
:101F20000020BDE8F081A3895B0705D56368D21A5C
:101F3000636B0BB1236CD21AE66A00232846216A30
:101F4000B047461CA38905D12A681AB11D2A01D0C1
:101F5000162A19D1002262602269D904226004D5B0
:101F6000421C01D12B6803B96065616B2F600029A9
:101F7000D6D004F14403994202D0284600F0D2F9A9
:101F800000206063BDE8F08143F04003A381BDE819
:101F9000F0810F69002FC3D093070E680CBF4B6907
:101FA0000023C7EB06080F608B6012E0A3894FF097
:101FB000FF3043F04003A381BDE8F0812846216A49
:101FC0003A464346A66AB0470028EFDD0744C0EB17
:101FD0000808B8F1000FF1DCA2E7000038B50B6982
:101FE00005460C46DBB118B183690BB900F072F8F5
:101FF0000C4B9C4201D16C6808E00B4B9C4201D118
:10200000AC6803E0094B9C4208BFEC68B4F90C30A3
:102010002BB128462146BDE83840FFF75BBF0020C2
:1020200038BD00BFC0780000E078000000790000F3
:10203000014620B9044B0549186800F0E3B8044B89
:102040001868FFF7CBBF00BF24790000DD1F000038
:1020500030010010014900F0D5B800BFDD1F0000BD
:1020600010B50446002303604360836081814366AA
:10207000C28103614361836119465C30082200F02C
:1020800048F9054B24626362044BA362044BE3628C
:10209000044B236310BD00BF2D3700004F370000F5
:1020A00087370000AB37000070B568234D1E5D43D5
:1020B0000E4605F1740100F079F9044640B10021A3
:1020C00080E842000C30A06005F1680200F021F9C0
:1020D000204670BD836910B5044633BB8364C36476
:1020E0000365124B124A1B688262984204BF0123A7
:1020F000836100F01FF86060204600F01BF8A060CC
:10210000204600F017F80421E06000226068FFF725
:10211000A7FFA06809210122FFF7A2FFE0681221B2
:102120000222FFF79DFF0123A36110BD2479000067
:1021300055200000F8B51B4B07461E68B36913B95C
:102140003046FFF7C7FF4836B4687368013B04D4D4
:10215000B4F90C5075B16834F8E733682BB93846D8
:102160000421FFF7A1FF306008B13668ECE70C23CB
:102170003B60F8BD4FF6FF73E3810123A3816566E1
:102180002560A560656025616561A56104F15C005D
:102190002946082200F0BDF86563A563A564E564DF
:1021A0002046F8BD247900000EB403B5014603AB08
:1021B000054853F8042B0068019300F075F902B04C
:1021C0005DF804EB03B07047300100102DE9F041D9
:1021D000884600F1480400268CB1A5686768013F75
:1021E0000BD4AB89012B06D9B5F90E30013302D0DF
:1021F0002846C04706436835F1E72468ECE73046D7
:10220000BDE8F0812DE9F8438046894600F1480495
:10221000002694B1A5686768013F0CD4AB89012BF7
:1022200007D9B5F90E30013303D040462946C847D7
:1022300006436835F0E72468EBE73046BDE8F883ED
:10224000074B10B51C6824B1A36913B92046FFF7EA
:1022500041FF20466168BDE8104003F0FDBB00BFB0
:10226000300100100E4B70B51E460E4C0025E41ACE
:10227000A410A54204D056F8253098470135F8E758
:1022800004F07CFF084B094C1E46E41AA4100025FC
:10229000A54204D056F8253098470135F8E770BDBF
:1022A0007001001070010010700100107401001026
:1022B000024B0146186800F079B800BF30010010E9
:1022C00010B5C9B202449042034605D01C780130D3
:1022D0008C42F8D1184610BD002010BD10B50A443C
:1022E000441E914208D014F8013F0878834201D07F
:1022F000181A10BD0131F4E7002010BD10B5431EBF
:102300000A44914204D011F8014B03F8014FF8E759
:1023100010BD03460244934202D003F8011BFAE7C2
:102320007047000030B500293CD051F8042C0B1F39
:102330001D49002AB8BF9B180A680C4612B95A609A
:102340000B6030BD93420DD219685818904201BFFE
:102350005A5852181A60426823605A6030BD994238
:1023600003D80A4651680029F9D1146815199D420D
:102370000AD11B682344D0188842136012D1086820
:10238000034413604B680CE002D90C23036030BD9A
:102390001C681819884201BF08684968001918604C
:1023A0005960536030BD00BF2C04001070B5CC1CC8
:1023B00024F0030408340C2C38BF0C24002C0646EF
:1023C00003DA0C233360002070BD8C42F9D3204A1D
:1023D000136810461946A1B10A68121B0ED40B2AC5
:1023E00003D90A608B188C501FE08B420BBF5A68D0
:1023F0004A6802605A6018BF0B4616E00B464968EF
:10240000E9E7144D2B681BB9304601F013F9286039
:102410003046214601F00EF9421C0346D1D0C51CBE
:1024200025F0030585420AD11C6003F10B001A1D3B
:1024300020F00700821A0AD05142995070BD3046F0
:10244000E91A01F0F7F80130BBD02B46ECE770BD7C
:102450002C04001028040010936810B5013B002BD9
:10246000936009DA9469A34202DBCBB20A2B03D151
:10247000BDE8104002F0BAB81368581C106019701B
:10248000C8B210BDF8B506460F461446D518AC4282
:1024900008D0304614F8011B3A46FFF7DDFF431C15
:1024A000F5D100E00020F8BD2DE9F0439DB00D46C8
:1024B00090460393064618B183690BB9FFF70AFEED
:1024C000754B9D4201D1756808E0744B9D4201D166
:1024D000B56803E0724B9D4208BFF568AB891C07E5
:1024E0000AD52B6943B10023099320238DF82930A5
:1024F00030238DF82A3041E03046294602F0DCF8DE
:102500000028F0D04FF0FF30C2E0039A0134111DD3
:1025100012680391002ABBBF524243F002030792A4
:102520000792B8BF049323782E2B7BD0DFF88081ED
:10253000217840460322FFF7C3FE38B1049AC8EB66
:10254000000040238340134304930134217855480D
:10255000062204F101088DF82810FFF7B1FE0028CB
:1025600000F08580504B002B78D1039B073323F07C
:10257000070308330393099B3B44099343461C46D6
:1025800013F8012B1AB9B4EB08090ED002E0252A82
:10259000F5D1F8E73046294642464B46FFF772FF31
:1025A000013070D0099B4B4409932378002B6AD0EB
:1025B00000234FF0FF3204930793059206938DF8A2
:1025C00053301A9304F101084446DFF8E89021786B
:1025D00048460522FFF774FE08F10108049B30B15C
:1025E000C9EB00000122824013430493ECE7D806B4
:1025F00044BF20228DF85320190744BF2B228DF8A9
:10260000532022782A2A80D0234607991C46227814
:102610000133303A092A03D80A2000FB0121F5E7EB
:10262000079180E763782A2B0AD1039B02341A1D95
:102630001B680392002BB8BF4FF0FF33059375E77B
:10264000611C00220C4623780131303B092B03D852
:102650000A2000FB0232F5E7059267E703AB00931F
:10266000304604A92A46114B00F0C4F807E003AB3A
:102670000093304604A92A460C4B00F077FB421C1D
:1026800007467FF478AFAB895B063FF53BAF09980F
:102690001DB0BDE8F08300BFC0780000E078000006
:1026A0000079000032790000F52700008524000041
:1026B0002E7900002879000030B505460C461346F7
:1026C000034A294610682246BDE83040FFF7ECBEB9
:1026D000300100102DE9F0471E4688B0149F002BF2
:1026E000B8BF06F10043129927F02007B6BF1E4677
:1026F00000232D23462F1446109DDDF84CA00B70AF
:1027000003D0452F03D1013501E0032300E002236C
:102710008DE8280406AB039307AB049322463346A7
:1027200002F0D2F8472F804602D1119BDB0726D555
:10273000462F08EB050911D198F80030302B0AD14B
:10274000204631460022002304F03EFC18B9C5F1B2
:102750000105CAF80050DAF80030994420463146A5
:102760000022002304F030FC08B1CDF81C90079B38
:102770004B4504D25A1C079230221A70F7E74046A4
:10278000079B159AC8EB0303136008B0BDE8F087F8
:10279000034673B50029B8BF494203F8022BB4BF02
:1027A0002D222B22092942701ADD0DF1070426463D
:1027B0000A2291FBF2F502FB1511092D01F13001FE
:1027C00004F8011D2946F3DC3031651E04F8011CB4
:1027D000B5421A460AD215F8012B03F8012BF7E788
:1027E0001A463024214402F8024B5970101A02B0E4
:1027F00070BD00002DE9F04F91B08B4615461E4686
:102800001A9F044603F054F9D0F800A0504600F097
:10281000DAFF00230E933B680990073323F0070388
:1028200003F108029BF818803A60D3E90023CBE952
:102830001223DBE9120100F0D5FE0128DBE91201C9
:1028400019D10022002304F0C9FB10B12D238BF80D
:102850004330A04BA04FB8F1470F88BF1F4603235A
:10286000CBF81030DBF8003023F00403CBF8003055
:102870004FF00009A1E000F0B5FEDBF8003048B9E8
:10288000964A974FB8F1470F88BF17460322CBF8F7
:102890001020E9E7DBF80420DBE91201571CCDE941
:1028A0000A0101D1062209E0B8F1670F02D0B8F1A0
:1028B000470F05D1002A40F0C7810122CBF8042040
:1028C000DBF8042043F480638DE80C00CBF8003083
:1028D0000DF1330302930DAB03930EAB059300236D
:1028E0000693CDF81080DDE90A232046FFF7F2FEBB
:1028F00008F0DF03472B07460AD10D9BD81C03DBEA
:10290000DBF80420934237DDA8F102085FFA88F86B
:10291000B8F1650F0D9915D8013942460BF15000F9
:102920000D91FFF735FF0E9A81468318012ACBF8E7
:10293000103003DCDBF80020D10738D50133CBF8A9
:10294000103034E0B8F1660F18D10029DBF80430FC
:1029500009DDCBF810101BB9DBF80020D20721D518
:1029600001330B441CE01BB9DBF80020D00701D574
:10297000023315E0012313E04FF067080D9B0E9A18
:10298000934207DBDBF80020CBF81030D10709D5E4
:10299000013305E0002BD4BFC3F10203012313442C
:1029A000CBF810300D9B4FF00009CBF858309DF854
:1029B000333013B12D238BF843300096204659460F
:1029C0000FAA2B4600F05CF9013002D14FF0FF3026
:1029D00052E1DBF800305A0505D4204629463A4634
:1029E000DBF8103008E1B8F1650F40F2D080DBE988
:1029F00012010022002304F0E7FA50B320462946D2
:102A0000384A0123B0470130E0D00E9B0D9A9A421C
:102A100009DBDBF80030D80705D4DBF800309F076E
:102A200000F1108107E1204629465246099BB04734
:102A30000130CBD000270E9B013B9F42EDDA2046B0
:102A400029460BF11A020123B0470130BED00137ED
:102A5000F1E70D9B002B29DC20462946214A012362
:102A6000B0470130B2D00D9B2BB90E9B1BB9DBF8E0
:102A70000030D907D1D5204629465246099BB04798
:102A80000130A3D04FF000080D9B20465B429845D3
:102A9000294608DA0BF11A020123B047013095D01C
:102AA00008F10108F0E73A460E9BA5E0DBF8582054
:102AB0000E9B9A42A8BF1A46002A914602DC4FF0AC
:102AC00000081CE0204629463A464B46B0470130F4
:102AD000F5D17BE73D7900003979000045790000A8
:102AE0004179000049790000204629460BF11A027D
:102AF0000123B04701303FF469AF08F10108DBF86A
:102B00005830B9F1000FB4BF1A46C9EB0302904523
:102B1000EADB07EB03080D9A0E9B9A4210DBDBF809
:102B20000030DA070CD40E9A1744C8EB07030D9F48
:102B3000D21B9342A8BF1346002B1F4608DC0EE0B1
:102B4000204629465246099BB0470130EBD13DE76C
:102B5000204629464246B04701303FF437AF4FF098
:102B600000080AE0204629460BF11A020123B0476B
:102B700001303FF42BAF08F101080D9A0E9B002F96
:102B8000A3EB0203A8BFDB1B9845EBDB45E70E9ADE
:102B9000012A01DCDB0736D5204629463A460123C7
:102BA000B04701303FF412AF204629465246099BF8
:102BB000B04701303FF40AAFDBE9120100220023E5
:102BC00004F002FAE8B90E9B204629467A1C013B24
:102BD0001DE0204629460BF11A020123B0470130BF
:102BE0003FF4F4AE01370E9B013B9F42F1DB2046E0
:102BF00029464B460BF15002B04701307FF40DAF30
:102C0000E4E60027EFE7204629463A460123B0478D
:102C10000130ECD1DAE6204629460BF119020123F6
:102C2000B04701303FF4D2AE0137DBF80C300F9AD9
:102C30009B1A9F42EFDBDBF80C000F9B9842B8BF5A
:102C4000184619E00027F0E743F480638DE80C0094
:102C5000CBF800300DF1330302930DAB03930EABB1
:102C6000059300230693CDF810802046DDE90A2362
:102C7000FFF730FD074640E611B0BDE8F08F00BF1A
:102C80002DE9F84391461F468A680B690646934230
:102C9000B8BF1346C9F8003091F843200C46DDF860
:102CA000208012B10133C9F800302368990642BF71
:102CB000D9F800300233C9F80030256815F0060550
:102CC0001CD094F843302268003318BF01239206C9
:102CD0001FD5E118302081F843005A1C94F84510A4
:102CE0002244023382F8431013E03046394604F19F
:102CF00019020123C047013007D00135E368D9F834
:102D000000209B1A9D42F0DBDBE74FF0FF30BDE86F
:102D1000F8833046394604F14302C0470130F4D00D
:102D20002268D9F80050E36802F00602042A08BFBE
:102D30005D1B2269A3680CBF25EAE5750025934257
:102D4000C4BF9B1AED184FF00009A9450ADA3046B6
:102D5000394604F11A020123C0470130D5D009F1E8
:102D60000109F2E70020BDE8F88300002DE9FF41EA
:102D70000C461746227E98466E2A06460A9B01F1AB
:102D8000430100F0B08012D8632A23D00AD8002A69
:102D900000F0BD80582A40F0CC8084F84520DFF850
:102DA00004E257E0642A1ED0692A1CD0C1E0732ACD
:102DB00000F0B18009D86F2A2ED0702A40F0B98077
:102DC000226842F0200222603FE0752A24D0782A4F
:102DD0003BD0AEE01A6804F14205111D196013687A
:102DE00084F84230A9E020681A6810F0800F02D001
:102DF000101D186008E010F0400F02F10400186088
:102E000002D0B2F9003000E01368002B3EDA2D2228
:102E10005B4284F8432039E020681A6810F0800F84
:102E200002D0101D186007E010F0400F02F10400FE
:102E3000186001D0138800E01368227EDFF864E197
:102E40006F2A0CBF08220A221CE07822DFF858E122
:102E500084F845202268186812F0800F00F10405FC
:102E60001D6003D1550601D5038800E00368D00733
:102E700044BF42F0200222601BB9226822F02002E7
:102E800022601022002084F8430002E0DFF814E101
:102E90000A226568002DA8BF2068A560A4BF20F0A5
:102EA0000400206003B965B10D46B3FBF2F002FBEC
:102EB00010331EF8033005F8013D03460028F4D115
:102EC00000E00D46082A0BD12368DA0708D52369EC
:102ED00062689A42DEBF302305F8013C05F1FF35F8
:102EE000491B21612EE025681A6815F0800F606982
:102EF00003D0151D1D60136808E015F0400F02F1A6
:102F000004051D60136801D0188000E018600023DC
:102F100023610D4616E01A68111D1960156800211D
:102F200028466268FFF7CCF908B1401B606063680F
:102F300004E004F1420584F84220012323610023C8
:102F400084F84330CDF800803046214603AA3B4642
:102F5000FFF796FE013002D14FF0FF301FE0304600
:102F600039462A462369C0470130F5D023689B07BC
:102F700005D4E068039B9842B8BF18460FE00025CF
:102F8000E368039A9B1A9D42F3DA3046394604F10E
:102F900019020123C0470130DED00135F0E704B04B
:102FA000BDE8F0814B7900005C7900002DE9F04F1D
:102FB00099468B6815465A1EB2F5AE7F82BF6FF4F4
:102FC000AE7203EB020C40F25D130F4688BF8B60BC
:102FD0000B684FF0000B43F4F06347F81C3B0646C8
:102FE0000C46B8465A46DA4687B098BF4FF0000CF8
:102FF000CDF80CB0CDF808B0CDF804B0A168002928
:1030000000F0EC802B681B78492B70D016D8392B38
:103010000DD8312B40D22D2B46D002D82B2B43D0AC
:10302000DCE02E2B00F09280302B23D0D6E0452B15
:1030300000F09580462B77D0412B0CE0652B00F0FB
:103040008E800AD8542B75D002D84E2B34D0C5E0D0
:10305000592B75D0612B46D0C0E06E2B2CD004D8F4
:10306000662B61D0692B42D0B8E0742B62D0792BEB
:1030700066D0B3E0206810F4807F0DD020F080008F
:1030800020600AF1010ABCF1000F00F08A800131D2
:103090000CF1FF3CA16084E012EB0B0F40F09E802E
:1030A000216821F4C07105E02168080640F196808E
:1030B00021F08001216070E06AB9BAF1000F0CD1F3
:1030C000216801F4E060B0F5E06F06D121F4F06111
:1030D0002160012261E0022A5ED0BBF1010F1ED007
:1030E000BBF1040F1AE0012A78D1022255E0BBF1AE
:1030F000000F0ED1BAF1000F73D1216801F4E06026
:10310000B0F5E06F71D121F4F06121604FF0010B57
:1031100043E0BBF1030F02D0BBF1050F5ED10BF111
:10312000010B5FFA8BFB38E0BBF1020F56D14FF079
:10313000030B32E0BBF1060F50D14FF0070B2CE030
:10314000BBF1070F4AD14FF0080B26E02168880534
:1031500044D521F420712160CDF804A01DE0216840
:1031600001F4A060B0F5806F04D0480536D5BAF1FF
:10317000000F3AD0880558BF019821F4F06158BF7C
:10318000C0EB0A0041F4C0715CBF0290CDF80C8026
:1031900021604FF0000A00E0032288F8003008F1B7
:1031A0000108A368013BA3602369013323616B68B5
:1031B000013B002B6B6003DD2B6801332B601DE7A7
:1031C000D4F88031304629460592CDF810C0984792
:1031D000DDF810C0059A00283FF410AFBAF1000FD7
:1031E00003D0236823F480732360013A012A0ED8A8
:1031F000B8450AD9D4F87C31304618F8011D2A4662
:1032000098472369013B2361F2E70125AEE00BF10A
:10321000FF33062B22D8BBF1020F12D9ABF1030BFF
:103220005FFA8BFBCBEB080BD84517D0D4F87C3179
:10323000304618F8011D2A4698472369013B23614F
:10324000F2E7B845E1D9D4F87C31304618F8011DD1
:103250002A4698472369013B2361F2E72368DA0590
:103260002CD55B050CD5B845CFD9D4F87C31304688
:1032700018F8011D2A4698472369013B2361F2E7AC
:1032800018F8011C2369652903F1FF3308F1FF3B9E
:1032900023610DD045290BD0D4F87C3130462A4625
:1032A0009847236918F8021C013BA8F1020B23611F
:1032B000D4F87C3130462A469847D846256815F020
:1032C000100552D188F80050236803F4C063B3F5A9
:1032D000806F05D1019BC3EB0A035A426BB916E01C
:1032E000029BA3B1039B2A46591C30460A2301F0D6
:1032F000E9F8029BDDF80C80C21A04F26F139845BE
:1033000028BF04F5B77840461A4900F0EBF930467B
:103310003946002200F0ACFA2268064612F0020F8D
:103320000F46D9F8003003D01A1DC9F8002006E076
:1033300012F0040F03F10402C9F8002003D01B6847
:10334000C3E900670DE0D3F8008000F04BF910B935
:1033500000F080F903E03046394603F0AFFEC8F8CC
:103360000000E3680133E36000E00025284607B071
:10337000BDE8F08F6D79000038B5084B05461C6834
:1033800024B1A36913B92046FEF7A4FE20462946BE
:10339000A268BDE8384003F07DB900BF30010010DD
:1033A00070B50E46054618B183690BB9FEF792FE5B
:1033B000AC68A389190701D5236983B9284621463A
:1033C00001F07AF958B14FF0FF3070BD002B0EDBE1
:1033D000236816F8012C1A70236801332360A36850
:1033E00016F8012B013BA360002AEFD116E0A26979
:1033F000934209DB236816F8012C1A7023681978A8
:103400000A29EAD1284602E0284616F8011C22467D
:1034100001F0ECF8421C50425041D3E7002B15DA82
:10342000A269934208DB23680A221A70236819787C
:1034300091420FD1284601E028460A21224601F098
:10344000D5F8431C5842584130B1BCE723680A22E2
:103450001A702368013323600A2070BD024B0146B5
:103460001868FFF79DBF00BF30010010838903F08B
:103470000903092B01D1FEF7DBBD002070470000D6
:10348000F8B50C46054618B183690BB9FEF722FE64
:10349000394B9C4201D16C6808E0384B9C4201D109
:1034A000AC6803E0364B9C4208BFEC68A28900235D
:1034B000636093B29E065AD458071AD4D90605D42D
:1034C000092342F040022B60A28150E01A070BD57D
:1034D00028462146FEF782FD002848D1A389A06036
:1034E00023F00803A381A061A38943F00403A3810F
:1034F00010E0616B71B104F14403994202D0284697
:10350000FEF710FF236C00206063636013B1E36B70
:103510002360F8BD23691BB92846214602F0DEFA74
:10352000A789BEB2B3070FD00123A381154B16495B
:10353000186806F00906FEF749FE092EA78103D197
:1035400028462146FEF7C6FC2269666A22602846A4
:10355000216A6369B047002860600BDCA38917BF4C
:10356000002243F0200343F040036260A3814FF048
:10357000FF30F8BD0020F8BDC0780000E078000002
:1035800000790000247900006D34000038B50C4645
:10359000054618B183690BB9FEF79CFD0E4B9C42A2
:1035A00001D16C6808E00D4B9C4201D1AC6803E08E
:1035B0000B4B9C4208BFEC6828462146FFF760FF92
:1035C00038B96368013B636023685A1C226018782D
:1035D00038BD4FF0FF3038BDC0780000E078000003
:1035E0000079000031F0004310B51BD00F4AA1F55F
:1035F0008014944210D901F1FF410C4A01F5E00119
:10360000914209D9B3F5801F08D3094A934207D1E3
:10361000B0FA80F0400910BD042010BD032010BD99
:10362000002010BD0028E6D1022010BDFFFFDF7F83
:103630000000F07F38B5064C00230546084623609D
:10364000FDF716FC431C02D1236803B12B6038BD83
:1036500038040010004870470000C07F1F2938B5AB
:1036600004460D4604D9162303604FF0FF3038BDE1
:10367000426C12B152F821304BB9204600F030F8BC
:103680002A4601462046BDE8384000F017B8012B15
:103690000AD0591C03D116230360012038BD002431
:1036A00042F8254028469847002038BD024B014685
:1036B0001868FFF7D3BF00BF3001001038B5074CC2
:1036C0000023054608461146236003F04FFD431CC6
:1036D00002D1236803B12B6038BD00BF380400104D
:1036E00003F03CBD0EB400B54FF402719CB0ADF8D0
:1036F00014106FF00041049107914FF6FF711DAB5C
:10370000ADF81610084953F8042B0290069008688B
:1037100002A9019302F0CCFE029B00221A701CB099
:103720005DF804EB03B070473001001010B50C4693
:10373000B1F90E1002F0EAFF0028ABBF636DA38958
:103740001B1823F48053ACBF6365A38110BD2DE922
:10375000F0411D468B890746DB050C46164605D50C
:10376000B1F90E100022022302F0A6F9A38938460F
:1037700023F48053A381B4F90E1032462B46BDE8E2
:10378000F04100F087BF10B50C46B1F90E1002F001
:1037900093F9431CA38915BF606523F4805343F458
:1037A0008053A38118BFA38110BDB1F90E1000F0A2
:1037B000EFBF10F8012B11F8013B012A28BF9A42F4
:1037C000F7D0D01A7047034613F8012B002AFBD11B
:1037D000181A0138704770B5A2B1451E01396B78CF
:1037E00011F8014F6E1CA34206D16FF00104641B57
:1037F0001444E04202D11C46181B70BD3546002B14
:10380000EDD1F8E7104670BD30B5036811F8014BF3
:1038100001334CB11A78A2F14105192D98BF20321D
:10382000A242F3D0002030BD0360012030BD2DE95D
:10383000F0410F46904602F085FC04460D46B8F173
:10384000000F11D0C7F30A53C3F16B03002B0BDD3C
:103850001B0503F17F55002405F5401522462B4634
:1038600003F04AF9BDE8F08120462946BDE8F08121
:103870002DE9F04F00239FB01A9382460B46039127
:1038800015924FF000084FF000091993199B1A7810
:103890000D2A05D8092A13D2002A00F0B78111E0B9
:1038A0002B2A06D02D2A02D0202A0BD108E0012293
:1038B00000E0002209925A1C19925B7823B9A5E115
:1038C0000133E2E700230993199C2378302B5CD164
:1038D0006378582B01D0782B4CD11AAB0093099BFD
:1038E0005046019319A9AE4A1BAB01F0F4FD10F04C
:1038F0000706054600F0A585062E05D101340023F4
:103900001994099300F09DBD1A9A3AB11CA835216B
:1039100002F005FD50461A9902F07CF91B9A062E1A
:1039200021D8DFE806F0040D08171C0D04004FF045
:103930000009C84617E0DDF87080DDF8749012E0E9
:103940001D9B02F2334223F48013DDF8708043EABA
:10395000025908E0DFF84C924FF0000803E06FF0E6
:1039600000494FF0FF38290740F16B8549F00049C5
:1039700000F067BD199B5A1C19925B78302BF9D067
:10398000002B00F05E85012300E000230026B346F3
:1039900035460493199B0793199C2778A7F13003A8
:1039A000DAB2092A0CD8082D4FF00A0204F10104FA
:1039B000D4BF02FB0B3B02FB063601351994EBE743
:1039C000504602F075F801685046059102F070F813
:1039D0000068FFF7F8FE059902462046FFF7FBFE58
:1039E00028B100203B462C460246074657E005908A
:1039F000504602F05DF80068FFF7E5FE199B059957
:103A00001A1819921B5C002D41D12846302B05D184
:103A1000199B01305A1C19925B78F7E7A3F1310228
:103A2000082A42D8199A0792024600200446303BE1
:103A300000F1010125D00A4421460719B94211D0ED
:103A4000013101F1FF3EBEF1080F04DC4FF00A0E18
:103A50000EFB0BFBF2E71029DCBF4FF00A0E0EFB4A
:103A600006F6EBE72044082800F1010403DC0A21F4
:103A700001FB0B3B04E0102CDCBF0A2101FB0636E6
:103A80000021199B581C19905B78084602E02C46CF
:103A900008460A46A3F130010929C8D90127652B38
:103AA00001D0452B64D16CB904E0652B40F0D7847C
:103AB0000022012728B9049B002B00F0A7800446B0
:103AC00000E00024199B039301331993039B5B7857
:103AD0002B2B07D02D2B02D04FF0000C09E04FF01C
:103AE000010C01E04FF0000C039B02331993039B80
:103AF0009B78A3F13001092938D81946302904D11F
:103B0000199B591C19915978F8E7A1F1310EBEF1B2
:103B1000080F0B462CD8A1F130030593199B06938F
:103B2000199B03F1010ECDF864E05B78A3F130013D
:103B3000092908D805994FF00A0E0EFB0131A1F1B1
:103B400030030593ECE70699C1EB0E0EBEF1080FAA
:103B500044F61F6E04DC05997145A8BF714600E06C
:103B60007146BCF1000F04D0494202E0039919915B
:103B70000021002C54D1002840F06384049A002ACC
:103B800040F05F84002F41D14E2B20D002DC492B26
:103B90000AD03BE0692B07D06E2B18D036E000BF6F
:103BA000B07900000000F07F19A8AA49FFF72CFEA9
:103BB00060B3199B19A8013BA7491993FFF724FE8D
:103BC00010B9199B01331993DFF8A4921AE019A8D0
:103BD000A249FFF719FEC8B1199B1B78282B0FD1FA
:103BE00019A89F491CAA01F0ADFE052808D11D9B0C
:103BF000DDF8708043F0FF4949F4E00900F021BC92
:103C0000DFF870924FF0000800F01BBC039B199383
:103C1000159B002B00F020840023099300F013BCB7
:103C20008B1A06932B46002D08BF23465846102CAE
:103C300025460393A8BF102502F0E8FE092D804613
:103C4000894613DD874B03EBC50353E9122302F0CA
:103C500053FF80463046894602F0D8FE02460B46A6
:103C60004046494602F096FD804689460F2C36DCD8
:103C7000069B002B00F0E58324DD162B07DC794A38
:103C800002EBC302D2E900014B46424615E0069A18
:103C9000C4F125039A4222DC724DC4F10F0405EBF6
:103CA000C403D3E9000142464B4602F025FF069BC0
:103CB0001C1B05EBC405D5E9002302F01DFF80465F
:103CC0008946BEE3069B13F1160F08DB654A4046A2
:103CD000A2EBC30249460CCA03F038F8EFE7069B93
:103CE000651B1D44002D58DD15F00F020AD05D4BF9
:103CF00003EBC203D3E9000142464B4602F0FCFE4F
:103D00008046894635F00F0500F0BA80B5F59A7FF8
:103D10000FDD4FF0000BCDF80CB0CDF81CB0CDF896
:103D200014B02223CAF80030DFF844914FF00008A5
:103D300083E14946DFF8409140464E462D11002769
:103D4000012D0ADDEA0703D5D9E9002302F0D4FEEC
:103D500001376D1009F10809F2E78046A1F15479A5
:103D600006EBC7064246D6E900014B4602F0C4FE08
:103D700021F0004389460A461B0D3B491B058B4237
:103D80008046C6D8A1F580118B4286BFDFF8EC9043
:103D90004FF0FF3802F1547972E071D06D4215F0A6
:103DA0000F020AD02F4B404603EBC2034946D3E92A
:103DB000002302F0CBFF804689462D1160D01F2DD5
:103DC00008DD4FF0000BCDF80CB0CDF81CB0CDF8ED
:103DD00014B02BE14046494615F0100F0CBF0023EC
:103DE0006A23224E0493002D08DDEB0703D5D6E9A4
:103DF000002302F081FE6D100836F4E7049B804634
:103E00008946EBB1C1F30A53C3F16B03002B0A4699
:103E100016DD1F2B0EDD342BDEBF203B4FF0FF31B4
:103E200001FA03F34FF00008CCBF4FF05C7903EACE
:103E3000020905E04FF0FF3202FA03F303EA00083B
:103E4000404649460022002303F0BEF80028B8D1BE
:103E500018E000BF3E790000C87A000046790000F3
:103E600074790000D87A00000000A07C88790000F6
:103E70000000F07F0000F8FFA07B0000FFFFEF7F55
:103E800000230493CDF800B050460799039A2346C7
:103E900001F015FF079000283FF43BAF069A069B00
:103EA000002AC3F100034FF0000BA8BF00230E93BC
:103EB000CDF80CB0079B5046596801F076FE05908E
:103EC00000283FF42EAF079B0C301A69079B023283
:103ED00003F10C019200FEF711FA1BAB00931CAB2F
:103EE0000193504642464B46CDE90A8902F09DF9BE
:103EF0001A9000283FF415AF5046012101F06CFFE5
:103F0000039000283FF40DAF069B049923EAE37762
:103F10001B9B1C9C002BAABF0E9AFA1AD618A3EB67
:103F2000010323446FF47F71ACBF3A460E9E8B426F
:103F3000C4F1360480F28680C91A1F29A4EB01045B
:103F4000C8BFB3494FF00100D5BF00FA01F3C91A49
:103F5000149300FA01F3D9BF00230F930F93149029
:103F60003519049BB54214441C442B46A8BF334664
:103F7000A342A8BF2346002BC2BFED1AE41AF61ACB
:103F80000E9B002B63D1002D7BDC002F40F0838043
:103F9000002C00F38A80002E00F3918050461A997D
:103FA000059A02F070F8834600283FF4BAAEC36861
:103FB0000024C4600399089302F049F8A04280F2FB
:103FC0008D80089B002B40F01582B8F1000F40F067
:103FD0001182C9F31303002B40F00C8229F0004337
:103FE0001B0D1B05B3F1D66F40F20482DBF81430D1
:103FF000002B6ED059460122504601F0D5FF03999F
:10400000834602F024F8002840F3F48129F00043AD
:10401000049A1B0D1B05002A00F08F80B3F1D66FA8
:1040200000F38B80B3F15C7F00F3E68122234FF035
:1040300000084FF00009CAF80030079B002B40F041
:10404000EC81FEE100230F930123149388E71A46C5
:104050005046039901F05AFF0390034600283FF4AD
:1040600060AE504619461A9A01F0BFFE089000282B
:104070003FF457AE50461A9901F0CCFD089B1A93B5
:1040800081E750461A992A4601F08EFF1A900028BF
:104090007FF47BAF45E6504605993A4601F036FF7E
:1040A000059000287FF474AF3BE650460599224600
:1040B00001F07AFF059000287FF46DAF31E650469D
:1040C0000399324601F070FF039000287FF466AF39
:1040D00027E6DBF81030012B8CDC8BE162D1089AEB
:1040E000C9F3130322B34B494A468B422ED1049B9A
:1040F000414663B1484B1340B3F1D46F07D81B0D51
:10410000C3F16B034FF0FF3000FA03F301E04FF00F
:10411000FF3399421AD1414B9A4202D101313FF407
:1041200000AE3D4B4FF00008134003F5801961E1EC
:1041300063B9B8F1000F09D168E7A3F580136FEAFE
:1041400013594FF0FF386FEA095953E10F9B13B130
:1041500013EA090F02E0149B13EA080F00F04A81EA
:10416000089B40464946049A53B1FFF760FB02465C
:104170000B46DDE90A0102F00DFB8046894639E174
:10418000FFF755FB02460B46DDE90A0102F000FB92
:10419000002200238046894602F016FF00287FF4A3
:1041A00045AF27E15846039902F091F800224FF0FD
:1041B000804306460F4602F01BFF00283FD0089BB5
:1041C00013B10026164F10E0B8F1000F03D1C9F368
:1041D00013033BB90BE0B8F1010F03D1B9F1000FA4
:1041E0003FF424AF0F4F002600240D4D3CE0304635
:1041F000394600220A4B02F0F1FEB8B93046394682
:104200000022094B02F078FC04460D4610E000BF86
:10421000E3FBFFFFFFFF0F000000F07FFFFFEF7FDA
:104220000000F03F0000F0BF0000E03F089C9A4D06
:1042300005F1004316941793DDE9166714E0964BD9
:1042400030463946002202F057FC089B04460D46D2
:1042500023B901F100431090119303E002460B468D
:10426000CDE91023DDE9106729F0004C4FEA1C5C12
:104270008A4B4FEA0C5C9C4531D1DDE90A23A9F158
:10428000547940464946CDF83CC0CDE90C2301F0B5
:1042900059FF02460B463046394602F02DFC0246D5
:1042A0000B464046494602F075FA21F000431B0DCB
:1042B0007B4A1B0593428046DDF83CC00CD9794B04
:1042C0000D9A9A4203D10C9B01333FF42AADDFF8DB
:1042D000D4914FF0FF387CE001F1547944E0049B25
:1042E00063B3BCF1D46F29D863A3D3E9002320467C
:1042F0002946CDF83CC002F07BFEDDF83CC0C8B1D9
:104300002946204602F0BAFE002808BF012002F02C
:104310007DFB089B04460D46DDF83CC023B901F146
:1043200000431290139303E002460B46CDE912239B
:10433000DDE9126707F1D663CCEB0307DDE90A017B
:10434000CDF83CC001F0FEFE02460B463046394631
:1043500002F0D2FB02460B46DDE90A0102F01AFA2E
:1043600080468946DDF83CC0049B4E468BBB29F055
:1043700000431B0D1B059C452BD12946204602F00E
:1043800055FE02F053FB0B4602462946204602F03A
:10439000FFF9089B04460D462BB9B8F1000F02D176
:1043A000C9F313067EB136A3D3E90023204629467C
:1043B00002F014FE88BB34A3D3E90023204629462B
:1043C00002F02AFE04E032A3D3E9002302F006FE45
:1043D00018BB50461A9901F01DFC5046059901F092
:1043E00019FC5046039901F015FC5046594601F05E
:1043F00011FC5FE5049B83B12B4B40460D930023DA
:104400000C934946DDE90C2302F076FB8046894691
:1044100019B910B92223CAF8003050461A9901F090
:10442000F9FB5046059901F0F5FB5046039901F060
:10443000F1FB5046079901F0EDFB5046594601F05B
:10444000E9FB159B13B1199B159A1360099B1BB1CE
:10445000424609F1004307E042464B4604E000248F
:1044600022460127FFF71DBB104619461FB0BDE8C5
:10447000F08F00BFAFF300800000C0FFFFFFDF41FF
:104480009535A094FFFFDF3F35E5AF350000E03FF5
:104490009535A094FFFFCF3F0000E03F0000E07F94
:1044A000FFFF9F7CFFFFEF7F00005039AFF30080DC
:1044B00003460A46024908681946FFF7D9B900BF02
:1044C000300100102DE9F0470F46404CD4F8009021
:1044D0003D4615F801EB09EB0E04667806F008047A
:1044E00004F0FF060CB12F46F2E774462D2C03D1E1
:1044F000BD1C7C78012603E02B2C04BF7C78BD1CFE
:1045000013B1102B0AD15AE0302C56D12C7804F07C
:10451000DF04582C4CD16C7810230235002E14BFC8
:104520004FF000486FF00048B8FBF3FA0027BE4692
:1045300003FB1A8809EB040C9CF801C01CF0040F63
:1045400001D0303C0BE01CF0030C1BD0BCF1010F80
:104550000CBF4FF0370C4FF0570CCCEB04049C42CF
:1045600010DAB7F1FF3F0AD0D64506D801D144454D
:1045700003DC03FB0E4E012701E04FF0FF3715F877
:10458000014BD7E77C1C73460AD1002E4FF0220165
:1045900014BF4FF000436FF0004301602AB911E0EF
:1045A0000EB1CEF100036AB107B1691E116009E0D6
:1045B0003024002BB2D10823B0E70A23AEE7302C19
:1045C000ACD1A3E71846BDE8F08700BF3401001066
:1045D00030B505460C461346034A29461068224664
:1045E000BDE83040FFF76EBF3001001070B50D46DA
:1045F0001446064618B183690BB9FDF76BFD224BD3
:104600009C4201D1746808E0204B9C4201D1B468FF
:1046100003E01F4B9C4208BFF468A369A360A38911
:104620001A0709D523693BB123682069EDB2181A2E
:10463000636998420FDB08E03046214600F03CF801
:104640000028F1D04FF0FF3070BD30462146FDF715
:10465000C5FC0028F6D1A3680130013BA3602368A4
:104660005A1C22601D706369984204D0A389DB073D
:1046700007D50A2D05D130462146FDF7AFFC0028AD
:10468000E0D1284670BD00BFC0780000E07800008F
:104690000079000038B5074C054600202060084628
:1046A00011461A46FCF750FB431C02D1236803B1A4
:1046B0002B6038BD38040010314B70B51D680646BC
:1046C0000C4625B1AB6913B92846FDF703FD2D4B08
:1046D0009C4201D16C6808E02B4B9C4201D1AC6834
:1046E00003E02A4B9C4208BFEC68A3899AB21107E9
:1046F0001DD4D50602D40922326038E0500712D505
:10470000616B41B104F14403994202D03046FDF798
:1047100009FE00236363A38923F02403A3810023FC
:10472000636023692360A38943F00803A38123699D
:104730004BB9A38903F42073B3F5007F03D030464F
:10474000214601F0CBF9A38913F0010205D0002224
:10475000A26062695242A26103E0990758BF626990
:10476000A26022694AB903F0800080B230B143F000
:104770004003A3814FF0FF3070BD002070BD00BF2B
:1047800030010010C0780000E078000000790000DF
:1047900038B5064C0023054608462360FCF7BEFAF0
:1047A000431C02D1236803B12B6038BD38040010CC
:1047B0002DE9F74F03690C698046A3427EDB013C7B
:1047C00001F114074FEA840E00F1140606EB0E0304
:1047D00057F82450019356F824300135B3FBF5F512
:1047E00007EB0E09BDB34FF0000A3846B446D34676
:1047F00050F8043B9AB21B0C02FB05A26B4303EB7F
:10480000124392B2C2EB0B0BBCF800204FEA134AE2
:104810005A441FFA83FBDCF800304845CBEB1343C6
:1048200003EB224392B242EA03424FEA234B4CF895
:10483000042BDDD956F80E306BB9019B043BB34213
:104840001A4602D8C8F8104005E01268043B002A56
:10485000F8D1013CF3E7404601F0F9FB00282BDBDF
:10486000304601354FF0000E57F8042B036891B223
:10487000C1EB0E0E120C99B27144C2EB134303EB61
:10488000214389B24FEA234E4F4541EA034340F8A2
:10489000043BE9D956F8242006EB840362B9043BB3
:1048A000B3421A4602D8C8F8104005E01268043B2B
:1048B000002AF8D1013CF3E7284600E0002003B0CD
:1048C000BDE8F08F000000002DE9F04F456A95B07B
:1048D0008246219CCDE9022345B91020FDF7E8FC72
:1048E000CAF82400456085600560C560DAF82430A8
:1048F000196859B15A68012393404A608B60504649
:1049000001F088F9DAF8243000221A60039BA24AE9
:10491000002BBDBF01232360039B0023BCBF23F0FA
:1049200000430393039FA8BF236027F000431B0DA0
:104930001B0593421DD142F20F73209A1360029B14
:1049400043B9964A964BC7F31300002814BF184684
:10495000104600E09248229B002B00F06985C37846
:1049600013B100F1080300E0C31C229A136000F0A9
:104970005FBDDDE90245002220462946002302F002
:1049800023FB804658B1209A01231360229B002B01
:1049900000F03C8583481860013800F049BD13AB36
:1049A000009312AB0193504622462B4601F03DFC8A
:1049B000C7F30A5607905EB1C5F3130343F07F5166
:1049C000204641F44011A6F2FF36CDF844801DE0A8
:1049D000139B129E1E446FF482639E42A1BF029AF3
:1049E00006F2124322FA03F06F4BB7BF6F4B9B1BCB
:1049F000029A9B1BAABF9F4002FA03F0384302F0C1
:104A000005F80123A1F1F871013E11930022684BD2
:104A100001F0BEFE5AA3D3E9002302F06DF85AA3B9
:104A2000D3E9002301F0B6FE044630460D4601F0FE
:104A3000FDFF57A3D3E9002302F05EF802460B46C0
:104A40002046294601F0A6FE04460D4602F0EEFA85
:104A50002946834600222046002302F0BFFA58B1BF
:104A6000584601F0E3FF02460B462046294602F075
:104A7000ABFA08B90BF1FF3BBBF1160F0DD84D4B4C
:104A800003EBCB03D3E90001DDE9022302F0C4FA12
:104A900030B10BF1FF3B002300E00123109300E055
:104AA0001090129B9E1B731E0A9345BF5B42099395
:104AB000002300234CBF0A930993BBF1000F07DBCF
:104AC0000A9BCDF834B05B440A9300230B9308E0B3
:104AD000099BCBEB03030993CBF100030B9300235A
:104AE0000D931E9B092B29D8052BC4BF043B1E9395
:104AF0001E9BC8BF0025A3F10203D8BF0125032BCD
:104B000021D8DFE803F0020E0410002300E00123A7
:104B10000C931F9B002B20DC0123069305931A4660
:104B200019E0002300E001230C931F9B5B440693D4
:104B30000133012B0593B8BF012311E001250023A8
:104B40001E930C9501E001230C934FF0FF33069365
:104B50000593002212231F9202E01F9B06930593E8
:104B6000DAF8244000226260042101F114029A4222
:104B700022D86268490001326260F6E7AFF3008034
:104B800061436F63A787D23FB3C8608B288AC63F53
:104B9000FB799F501344D33F0000F07FC57A00009B
:104BA000CE7A00004A7900000EFCFFFFEEFBFFFF0B
:104BB0000000F83FD87A00005046616800F0F5FF29
:104BC000DAF8243020601B680893059B0E2B00F256
:104BD0004781002D00F04481DDE90223BBF1000F85
:104BE000CDE90E2331DDB14A0BF00F034FEA2B164E
:104BF00002EBC303F006D3E900450CD5DDE90E0155
:104C0000AB4B06F00F06D3E9082302F09FF8032709
:104C1000CDE9020100E00227DFF8948276B1F107C6
:104C200008D5D8E900232046294601F065FF04464F
:104C30000D460137761008F10808EFE7DDE90201BB
:104C400022462B4602F082F81BE0CBF10004DCB1D7
:104C5000DDE90E01954B04F00F0203EBC203D3E92B
:104C6000002301F049FF924D241102274CB1E207C5
:104C700004D5D5E90023013701F03EFF6410083563
:104C8000F4E7CDE9020100E00227109BDBB1DDE98A
:104C90000245002220462946864B02F09FF990B13A
:104CA000059B83B1069B002B40F3D6802946204606
:104CB0000022814B01F020FF0BF1FF36CDE902010C
:104CC0000137069D01E05E46059D3846DDE9028913
:104CD00001F0ACFE42464B4601F00EFF774B00223E
:104CE00001F058FDCDE90201039BA3F15074039438
:104CF000CDB9404649460022714B01F049FD029A68
:104D000023468046894602F087F9002840F0408219
:104D100040464946029A04F1004302F05FF9002838
:104D200040F0308298E0614B0C996A1E03EBC2039D
:104D3000002947D0D3E900230020624902F006F899
:104D4000DDE9022301F024FDCDE90201089C49467A
:104D5000404602F06BF9074601F068FE02460B463A
:104D60004046494601F014FDDDE90223303704F8DE
:104D7000017B8046894602F031F9002840F03783F4
:104D800042464B4600204B4901F002FDDDE902237B
:104D900002F024F9002840F0D080089BE31AAB42CF
:104DA0005ADADDE902010022434B01F0A5FE0022A0
:104DB000CDE90201404B4046494601F09DFE804648
:104DC0008946C4E7D3E90001DDE9022301F094FE3E
:104DD000089BCDE902015C191D464946404602F098
:104DE00025F9074601F022FE02460B464046494699
:104DF00001F0CEFC303705F8017BA542804689469C
:104E000023D100222F4BDDE9020101F0C3FC024651
:104E10000B464046494602F0FFF8002840F08D80DE
:104E2000DDE902230020274901F0B2FC02460B46CF
:104E30004046494602F0D2F870B114F8013C621EB7
:104E4000302B40F0D4821446F7E700221A4B01F0D1
:104E500053FE80468946C0E7DDE90E23CDE90223F3
:104E6000139B002BC0F28A80BBF10E0F00F38680EB
:104E70000E4B03EBCB03D3E900671F9B002B23DA18
:104E8000059B002B20DC40F07C81304600220C4B3F
:104E9000394601F031FEDDE9022302F0B3F8059D49
:104EA0002E46002840F06F8174E100BFD87A0000E0
:104EB000A07B00000000F03F0000244000001C40E8
:104EC000000014400000E03F089CDDE90289324602
:104ED0003B464046494601F039FF02F0A7F8054637
:104EE00001F0A4FD32463B4601F006FE0B460246A9
:104EF0004946404601F04CFC05F1300E089B04F891
:104F000001EBC3EB040E059B9E452AD102460B46DE
:104F100001F040FC32463B468046894602F07CF870
:104F200070B94046494632463B4602F04DF80028EB
:104F300000F05E82EB0703D45AE2B34600E01C4661
:104F400014F8012C631E392A07D1089A9342F6D12E
:104F50003023137013460BF1010B1A7801321A70CB
:104F600046E20022A34B01F0C7FD00220023804649
:104F7000894602F029F80028A9D039E20C9A002AC3
:104F800032D01E9A012A0ADC119A12B103F233437D
:104F900002E0129BC3F136030B9D099C18E0059BB0
:104FA0005D1E0B9BAB42B7BF0B9B5D1BEA1A0D9BB3
:104FB000BEBF0B959B180D93059BB8BF0025002B1A
:104FC000B9BF099B059A099C059BBCBF9C1A00238D
:104FD000099A50461A4409920A9A01211A440A92DF
:104FE00000F0FAFE064602E00B9D099C0C9E64B19F
:104FF0000A9B002B09DDA342A8BF2346099AE41AA5
:10500000D21A09920A9AD31A0A930B9B002B20DD1D
:105010000C9BC3B1002D10DD31462A46504600F0EE
:1050200075FF0646079A3146504600F0DEFE0746F9
:105030000799504600F0EEFD07970B9B5A1B08D0CE
:105040005046079902E0504607990B9A00F05EFF20
:1050500007905046012100F0BFFE0D9B0546002B36
:105060000ADD29461A46504600F050FF1E9B0546B1
:10507000012B04DD00271BE01E9B012B13DC029B90
:105080008BB9039BC3F313037BB9039B23F0004746
:105090003F0D3F0557B1099B0127013309930A9B37
:1050A00001330A9302E0002700E0029F0D9B43B109
:1050B0002B6905EB8303186900F041FEC0F1200065
:1050C00000E001200A9B184410F01F0008D0C0F136
:1050D0002003042B02DDC0F11C0002E008D01846BA
:1050E0001C30099B0444034409930A9B03440A931C
:1050F000099B002B05DD504607991A4600F054FF26
:1051000007900A9B002B05DD294650461A4600F001
:105110004BFF0546109BEBB10798294600F097FF1F
:10512000002817DA0023504607990A2200F089FD6B
:105130000C9B0BF1FF3B0790002B00F06B8131467D
:10514000002350460A2200F07CFD069B0646002BF9
:1051500033DC68E1059B002B26DC1E9B022B23DD44
:10516000059B0693069B73B929460522504600F01D
:1051700068FD05460798294600F069FF002809DC0C
:1051800001E000252E461F9B089C6FEA030B08E0F8
:10519000B3462E46089B089A5C1C312313700BF112
:1051A000010BB14600260FE10C9B23B9059B06932A
:1051B000089F079CC9E0059B0693002C05DD31463E
:1051C0005046224600F0F0FE0646AFB171685046E8
:1051D00000F0EBFC0446326906F10C010232920049
:1051E0000C30FDF78BF850462146012200F0DCFE22
:1051F000814602E000002440B146089F079C2946F2
:105200002046FFF7D5FA3146099000F130082046D4
:1052100000F01DFF4A4605902946504600F033FF36
:10522000C26803463AB919462046079300F00FFFBB
:10523000079B024600E0012250461946079200F003
:10524000E9FC079A92B91E9B83B9029B03F0010304
:1052500063B9B8F1390F3B4607943ED0059B7C1CDF
:10526000002BC4BF099B03F131083DE0059B002BD7
:1052700004DA002AC446079408DC21E024D11E9BEE
:1052800013BB029B03F00103F3B9F2E721460122AD
:1052900050460597CDF8088000F086FE2946079015
:1052A00000F0D5FE0028DDF808C0059B03DC07D11F
:1052B00018F0010F04D0B8F1390F0ED008F1010C2D
:1052C0007C1C87F800C07FE0002A07F101020EDD98
:1052D000B8F1390F3B46079403D1392201371A70D0
:1052E00057E0144608F1010887F800806CE0089B3D
:1052F0001746D31A02F8018C069A93423AD02146F7
:105300000A220023504600F09CFC4E4504463146DC
:1053100050464FF00A024FF0000304D100F091FC18
:10532000064681466BE700F08CFC494606460A2299
:105330005046002300F085FC814660E72146504638
:105340000A22002300F07DFC044620462946FFF790
:105350002FFA089B00F1300807F8018B069AFB1A18
:105360009342EBDB089BB146012AACBF9B1801338B
:105370001F46002621460122504600F015FE294610
:10538000079000F064FE002803DC15D118F0010F2F
:1053900012D03C4614F8013C621E392B09D1089BFF
:1053A0009A4204D10BF1010B3123089A02E0144612
:1053B000F0E70133137007E03C4614F8013C621E2D
:1053C000302B01D11446F8E75046294600F022FC64
:1053D000B9F1000F0CD02EB14E4503D050463146E6
:1053E00000F018FC5046494600F014FC00E0B346BB
:1053F0005046079900F00EFC0023209A23700BF111
:1054000001031360229B1BB11C6001E00A480FE0FE
:1054100008980DE0069B002B3FF7CAAE1E9B022B9F
:105420003FF7A0AEC4E61E9B022B3FF79BAEC4E63F
:1054300015B0BDE8F08F00BF49790000AFF30080E0
:10544000F0B506694B11B34200F1140527DA11F0EB
:105450001F0105EB860605EB830201D1294616E004
:10546000141D55F823202B46C1F1200ECA40B4422A
:1054700009D2276807FA0EF73A4343F8042B54F889
:10548000042BCA40F3E71A6052B1043308E0B24279
:105490000B4605D252F8043B41F8043BF7E72B4694
:1054A0005B1B9B10036103B94361F0BDA0F13003A6
:1054B000092B01D820380AE0A0F16103052B01D89F
:1054C000473804E0A0F14103052B02D82738C0B2C9
:1054D0007047002070472DE9F04F89B08A46914609
:1054E0000493019000F0E4FA036800261846029342
:1054F000FEF769F9029B0090034413F8013C059301
:10550000DAF800300233984613F8010B302801D145
:105510000136F8E7FFF7CAFF0446E8B940460299AA
:10552000009AFEF758F9002837D1009B18F80300BD
:1055300008EB0307FFF7BAFF88B33B461878984695
:10554000302803F10103F9D0FFF7B0FFB0FA80F57E
:105550003C466D09012601E000252C46C3465F4606
:1055600038780BF1010BFFF7A1FF0028F7D138467F
:105570000299009AFEF72FF958B95CB9009BFC1804
:10558000A3465F4638780BF1010BFFF78FFF002829
:10559000F7D134B1E41BA40003E0474600E0044621
:1055A00001253B78502B01D0702B30D17B782B2BF1
:1055B00006D02D2B02D07A1C002303E0012300E04B
:1055C0000023BA1C107806930392FFF76FFF411E69
:1055D000C9B21829039A069B19D8A0F1100B12F82A
:1055E000010F069303920792FFF760FF411EC9B2B5
:1055F0001829039A069B05D80A2101FB0B0BABF176
:10560000100BECE70BB1CBF1000B5C4400E03A4629
:10561000CAF8002025B1002E14BF002006207CE12E
:105620002946C8EB0703013B072B02DD01315B1064
:10563000FAE7019800F0B9FA4FF0000A00F1140BF4
:1056400005465E46D446474537D97B1E0393059AE7
:1056500017F8013C934209D0BCF1200F1AD1C6F8CB
:1056600000A04FF0000A0436D44613E0009B039AD2
:10567000C3F1010313444345EED318460299009A3F
:10568000CDF81CC00693FEF7A6F8069BDDF81CC0FB
:1056900088B1E1E717F8010CCDF818C0FFF706FF55
:1056A000DDF818C000F00F0000FA0CF0039B4AEA86
:1056B000000A0CF1040C1F46C5E746F804ABCBEB1F
:1056C0000606B01028614701504600F038FBD9F8B3
:1056D0000060381AB04226DD871B3946284600F0A4
:1056E00038FEC8B17B1E5A1103F01F014FF00108AC
:1056F0005BF8222008FA01F111420ED0434502DC8A
:105700004FF0020809E02846B91E00F022FE0028EA
:10571000F6D04FF0030800E0804628463946FFF7F0
:105720008FFE3C440CE009DA371A294601983A46C4
:1057300000F03AFC0546E41B00F1140B4FF00008A2
:10574000D9F808309C4208DD0198294600F062FA39
:10575000129A00231360A320DFE0D9F804008442EA
:1057600053DA041BB4422EDBD9F80C30022B1AD0CA
:10577000032B1CD0012B1DD1B4421BD1012E0BDCFD
:10578000D9F80430049A6220136001232B61CBF80E
:105790000030129B1D60C0E02846711E00F0D9FD4C
:1057A0000028EDD106E0139B002BE9D002E0139B0B
:1057B000002BE5D10198294600F02CFA129A00231B
:1057C00013605020A9E0671EB8F1000F07D1002F29
:1057D00007DD2846394600F0BCFD804601E04FF069
:1057E00001087A115BF8222007F01F070123BB4054
:1057F00013422146284618BF48F00208361BFFF71F
:105800001FFE0227D9F8044000E00127B8F1000F7D
:105810007ED0D9F80C30022B0ED0032B10D0012BE8
:1058200074D118F0020F71D0DBF8000048EA0008CC
:1058300018F0010F07D169E0139BC3F10103139323
:10584000139B002B62D0D5F810A005F114034FEA8A
:105850008A0803EB08011A68501C02D001321A6052
:1058600021E0002243F8042B8B42F4D3AB689A4525
:1058700012DB69680198013100F097F983462A69C3
:1058800005F10C01023292000C30FCF737FD29467D
:10589000019800F0BFF95D462B695A1C2A6105EB9F
:1058A000830301225A61022F05F1140210D1D9F8A5
:1058B0000030013B9E4226D17111012306F01F06E4
:1058C00052F82120B34013420CBF022701271AE0EF
:1058D0002B6953450ADD28460121FFF7B1FDD9F8B0
:1058E000083001349C423FF72FAF0BE016F01F0643
:1058F00008D0904458F8040C00F021FAC6F12006B4
:10590000B042E8DB012747F0200701E047F010072D
:105910003846129B1D60049B1C6009B0BDE8F08FE7
:10592000C2F10802920070B5C2F120064368056812
:1059300003FA06F42C43D340046040F8043F884245
:10594000F4D370BD2DE9F04F0E681746751102EBC8
:10595000850516F01F0318BF04350022A5F10409C0
:105960008346C8464C46164685B0D0F800A0019341
:1059700045F8042C00921AF8011F00293AD0084675
:1059800003920291FFF792FD0299039AE8B9202948
:1059900014D8009BB342EEDA444505D2072A03DC53
:1059A00020464146FFF7BCFFBC4221D9A4F10408C0
:1059B000002244F8042C00964446DCE7292945D10E
:1059C0000AF10103CBF8003014E00132082A06F195
:1059D000010606DDBC42CED9002244F8042C043C6A
:1059E0000122216800F00F0040EA01102060C2E7A8
:1059F0000822C0E756B3444505D2072A03DC2046F7
:105A00004146FFF78DFFBC420CD93B4654F8042BAE
:105A10004C4543F8042BF9D9002243F8042B4B459D
:105A2000FAD90BE0019B4BB1C3F1200655F8042CC9
:105A30004FF0FF33F340134045F8043C55F8043D64
:105A400033B9BD42FAD101232B6001E0042000E00C
:105A5000052005B0BDE8F08F38B50C46054618B1F5
:105A600083690BB9FCF736FB0E4B9C4201D16C6885
:105A700008E00D4B9C4201D1AC6803E00B4B9C420B
:105A800008BFEC686368013B002B636005DA2846B9
:105A90002146BDE83840FDF779BD23685A1C2260D5
:105AA000187838BDC0780000E07800000079000068
:105AB000004870473801001038B5074C05460020F3
:105AC0002060084611461A46FBF7A0F9431C02D194
:105AD000236803B12B6038BD38040010F0B58B8902
